:100000000C9434030C946C030C946C030C946C03EC
:100010000C946C030C946C030C946C030C946C03A4
:100020000C946C030C946C030C9498280C946B291E
:100030000C9478210C946C030C946C030C946C035A
:100040000C946C030C946C030C946C030C946C0374
:100050000C946C030C9430220C946C030C946C0381
:100060000C946C030C946C030C946C030C946C0354
:100070000C946C030C946C030C946C030C946C0344
:100080000C946C030C946C030C946C030C946C0334
:100090000C946C030C946C030C946C030C946C0324
:1000A0000C946C030C946C030C946C030000000023
:1000B0000000000000000000000000000080403050
:1000C00098CC66128ACCC8B060C000000000000066
:1000D0000000000000000000000000000000000020
:1000E0000000000080C060308846321B8EC4D830CB
:1000F0006080000000000000000000000000000020
:10010000000000000000000000000000000080600F
:100110003098CC62338A8ECC9860C080000000009A
:1001200000000000000000000000000000000000CF
:1001300000000000000000000000083EC3987C831F
:1001400001000067D98C868383C65FEC3000000015
:10015000000000000000000000000000000000009F
:1001600000003C63C13CC603010002EF908C860195
:10017000C2CE3FFC100000000000000000000000A4
:1001800000000000000000000000003C668338EC26
:10019000030100006FB90C8E8783C6DD76B80000BE
:1001A000000000000000000000000000000000004F
:1001B0000000000000000000000000000101060D2A
:1001C000367870606030180F0606030000000000EB
:1001D000000000000000000000000000000000001F
:1001E0000000000203030D1B6C78E0C06131180FA2
:1001F00004060301000000000000000000000000F1
:100200000000000000000000000000000203070CD6
:100210001B6CF8E0C0C161311B0E0D06030100002C
:1002200000000000000000000000000000000000CE
:1002300000000000000000000000000000000000BE
:1002400000000000000000000000000000000000AE
:10025000000000000000000000000000000000009E
:10026000000000000000000000000000000000008E
:10027000000000000000000000000000000000007E
:10028000000000000000000000000000000000006E
:10029000000000000100000000000000000000005D
:1002A00000000000000000000000000014001A0020
:1002B0000800150017001C0018000C0012001300A5
:1002C00004001600070009000A000B000D000E00D4
:1002D0000F002A001D221B00060019000500110056
:1002E0001000360037003832E000E2002C282B41A5
:1002F0002842290000000000000000002D022D000F
:100300002E022E0033023500BC00AE00BB004C00B4
:100310002F0226022702300231022900500052002B
:1003200051004F002F2234003402300033003502D8
:10033000AA00A800A900313201000100010001005B
:100340000100010000000000000000001E021F026A
:1003500020022102220223022402250239002A005F
:100360001E001F0020002100220023002400250081
:1003700026002700E10000000000000023520000DA
:100380000000360037003832010001000100010092
:10039000010001000000000000000000000000005B
:1003A000000000000000000000000000000000004D
:1003B0003A003B003C003D003E003F004000410051
:1003C00042004300440000000000007C01000000E7
:1003D00000000000000045000100010001000100D4
:1003E00001000100000000000000000000AE00AFAE
:1003F00000DA0281FFD9F1DB20A4A62EAF00A0C055
:10040000D30000A1C8D30000AED580A81F408D1432
:10041000200000000000000000002A2B280000003F
:1004200000000000000000000000000000290000A3
:1004300000002C1E3420212224342627252E362D80
:100440003738271E1F202122232425263333362E1A
:1004500037381F0405060708090A0B0C0D0E0F108C
:100460001112131415161718191A1B1C1D2F3130D1
:10047000232D350405060708090A0B0C0D0E0F1075
:100480001112131415161718191A1B1C1D2F3130B1
:10049000354C0000000000000000000000000000DB
:1004A000000000000000000000000000000000004C
:1004B0000000000000007E0F00D4FFFFFFC7000017
:1004C00000780E03640062003300360076003300CB
:1004D000000006034B005900000004030904090250
:1004E0005B00030100A0FA09040000010301010000
:1004F00009211101000122440007058103080001C0
:100500000904010002030000000921110100012279
:1005100022000705820320000107050303200001D4
:100520000904020001030000000921110100012259
:10053000B60007058403200001120100020000003C
:1005400008594B73DA0001010200010660FF0961DE
:10055000A1010962150026FF009520750881020996
:1005600063150026FF00952075089102C00501095A
:1005700002A10185020901A1000509190129081537
:100580000025019508750181020501093009311521
:1005900081257F95027508810609381581257F958B
:1005A0000175088106050C0A38021581257F950121
:1005B00075088106C0C005010980A10185031901E4
:1005C0002AB700150126B700950175108100C005F6
:1005D0000C0901A101850419012AA002150126A018
:1005E00002950175108100C005010906A10185066B
:1005F000050719E029E71500250195087501810215
:100600000507190029EF1500250195F075018102F4
:1006100005081901290595057501910295017503D4
:100620009101C005010906A101050719E029E71597
:100630000025019508750181029501750881010564
:1006400007190029FF150026FF009506750881008F
:100650000508190129051500250195057501910267
:10066000950175039101C00011241FBECFEFDAE0A0
:10067000DEBFCDBF04B603FE18C080912A0590915D
:100680002B05A0912C05B0912D058730904BA740EC
:10069000B04B59F410922A0510922B0510922C059C
:1006A00010922D05E0E0F8E3099511E0A0E0B1E03B
:1006B000E6E6F9E502C005900D92A43BB107D9F733
:1006C00025E0A4EBB1E001C01D92AA32B207E1F728
:1006D0000E94CA120C944D2C0C94000060E072E051
:1006E0008CEA90E00E948D1380E00895982F962B5D
:1006F0009430A8F44A3098F4E42FF0E09AE0699F2F
:10070000E00DF11D112498E2899FE00DF11D1124E7
:10071000EE0FFF1FE455FD4F85919491089581E000
:1007200090E0089581E008950E949203089581E089
:1007300008950E94920308950E94990308950895D0
:100740000E949F030895A6E0B0E0E9EAF3E00C946C
:10075000AE2B49835A839E833091BB0189819A8154
:1007600031111AC03E81332399F0222389F00E946F
:100770003509182F682F89819A810E941109698192
:100780007A81812F0E946A102696E3E00C94CA2B8E
:100790000E942309182FF3CF0E94350969817A81BD
:1007A000F1CFFC01262F40815181628173818481C8
:1007B00095810E94A3030895CF93DF93D82FC92F6B
:1007C00061E00E94D1036D2F7C2F0E949403DF9182
:1007D000CF910895CF93DF93D82FC92F60E00E9467
:1007E000D1036D2F7C2F0E94A003DF91CF9108953C
:1007F00081E008950E94F8030895CF93C82F0E94C6
:1008000005088C2F0E94FA032FEF84E39CE021500F
:1008100080409040E1F700C00000CF91089581E052
:100820000E94FD030E945422089580E00E94FD036F
:100830000E94782208950F931F93CF93DF938C012A
:1008400061E00E94D103EC01F8018581882319F051
:10085000CE010E94701EB801CE010E94FE1C8823AA
:1008600009F442C0B801CE010E949C038823E1F143
:10087000B801CE010E940C1C8823B1F1B801CE0151
:100880000E941C17882381F1B801CE010E94F11645
:10089000882351F1B801CE010E944D1C882321F11B
:1008A000F8018581882381F0CA35FCE7DF0739F13B
:1008B00078F4C130ECE7DE07F9F0C330FCE7DF077E
:1008C000C9F0C115DC4771F0C8010E9497030DC043
:1008D000CB35ECE7DE07B1F0CC35DC47A9F70E9459
:1008E000870DF2CF0E940F0480E0DF91CF911F911E
:1008F0000F9108950E94990D0E941504F5CF0E9452
:10090000910DE2CF0E94950DDFCF0E9454210E94ED
:10091000AE040E94E51408950E94B2040E94592179
:100920000895089581E008950895CF93DF93D82F17
:100930000E949204C82F882319F08D2F0E949404DE
:100940008C2FDF91CF9108950895CF93C82F0E94E7
:1009500091048C2F0E949504CF91089580E00E940D
:10096000A50408950E94901F0E94A5040895CF93A6
:100970000E94901FC82F8091B6018C1779F0C09308
:10098000B6010E94E4216093B7017093B80180938F
:10099000B9019093BA018C2F0E94A504CF910895BC
:1009A000ADE0B0E0E6EDF4E00C94AF2B488759875A
:1009B0006A877B878C879D8791110E94920C1F828A
:1009C00086E0FE013896DE01119601900D928A951F
:1009D000E1F78D8181110DC029813A814B815C81C4
:1009E0006D817E818F810E94D80B2D96E2E00C9460
:1009F000CB2BCE0101960E94DC038111EDCFF5CF08
:100A0000FC018481813021F4808191810E945E0902
:100A10000895662329F00E948A180E94601908959B
:100A20000E94E818FACFCF93C82F882399F08CEF53
:100A30008C0F813A88F48C2F0E943320882329F070
:100A40008C2F0E94D8200E942A0D8C2F0E94C1203A
:100A50000E942A0DCF91089580E28C0F883048F4CF
:100A6000C77081E001C0880FCA95EAF70E94730C35
:100A7000EFCF8BE58C0F833038F42C2F2452330BBF
:100A8000C9010E94C61FE6CFE8E5EC0FEB3150F438
:100A9000F0E0EE0FFF1FEE5DFE4F808191810E941E
:100AA000EC1FD8CF83E38C0F8331A0F661E08C2F4D
:100AB0000E940905CFCF882381F19CEF980F913ACE
:100AC00028F40E94D8200E942A0D089590E2980FE1
:100AD000983050F4877091E001C0990F8A95EAF739
:100AE000892F0E94790CEFCF9BE5980F933028F463
:100AF00080E090E00E94C61F089598E5980F9B3112
:100B000028F480E090E00E94EC1F089593E3980F92
:100B1000933118F460E00E94090508951F93CF9364
:100B2000DF93182FEB010E941305209739F4812FD2
:100B30000E945B05DF91CF911F9108958FE99FE09F
:100B40000197F1F700C000002197EFCF60E070E05F
:100B5000893311F460E570E00E948E0508958823C2
:100B600021F00E94730C0E942A0D0895882321F021
:100B70000E94790C0E942A0D0895A0E0B0E0E3ECF9
:100B8000F5E00C94A92B6C01D62FC72FFC01158121
:100B9000068102950F700E94680CE82E8823F9F0F8
:100BA000E12E1123E1F08C2F807F803461F080E210
:100BB0008D0F8830F0F08C2F807E803221F4D2307F
:100BC000C0F00023B1F08091020382FF12C082E0E6
:100BD0000E945A0D0E94680C91E0E82EE926EC2F45
:100BE000E295EF70C03CB0F5F0E0E15BF34D0C94A2
:100BF0007F2BE12CF4CF0C2F0F70C03110F0029539
:100C0000007F112399F0002359F080E28D0F883086
:100C100010F0D11107C0802F0E94730C0E942A0D82
:100C20008D2F51C0802F0E94840CF8CF8D2F0E94F1
:100C30005B05002379F080E28D0F883010F0D11130
:100C400004C0802F0E94790C03C0802F0E948A0C60
:100C50000E942A0DEE2089F00E94640C80FD0DC0D8
:100C6000F60115820E945E0C0E947F08C6010E9458
:100C7000CC070E945E0C0E948B08CDB7DEB7E8E07F
:100C80000C94C52BFC2FFF70FF2EC07FC03219F0D3
:100C9000F29480EFF822DD2341F0D130D1F111231D
:100CA00009F444C00023F1F0BBCF8091020382FD20
:100CB00015C0112359F0FF2029F08F2D0E94730CCD
:100CC0000E942A0D80E00E941305C4CF80E00E949C
:100CD0005B05FF2009F4BECF8F2DB4CF112369F03F
:100CE000011104C08F2D0E94AF05B4CF013009F06F
:100CF000B1CF8F2D0E94AA0CADCF0111ABCF8F2D9C
:100D00000E94B6058F2D0E94B60C8F2D0E94990C63
:100D1000A1CF112321F0063008F09CCFE3CF05309E
:100D200008F098CF8F2D0E94B60594CF0023D1F301
:100D3000D93349F42FEF87EE93E021508040904063
:100D4000E1F700C000008D2F0E945B0583CF8C2F40
:100D5000869586958370882369F0813009F07ACF73
:100D60008D2F9C2F9370111102C080E090E00E94A3
:100D7000EC1F70CF8D2F9C2F9370111102C080E05B
:100D800090E00E94C61F66CF612F8D2F0E9409053B
:100D900061CF8C2F8370811134C0111124C04D2F6D
:100DA000429546954770440F440F8D2F8F70042E47
:100DB00001C0880F0A94EAF7D071DD2341F02FE0DB
:100DC00030E001C0220F4A95EAF7D22FD095C695A0
:100DD000C695C3708D2BC23071F0C33079F0C1302D
:100DE00039F00E945B080E94901F0E94A50432CF38
:100DF0000E945508F8CF0E946108F5CF0E94520862
:100E0000F2CF112339F1C0FFEECF4D2F4295469519
:100E10004770440F440F8D2F8F70042E01C0880F30
:100E20000A94EAF7D071DD2341F02FE030E001C0F1
:100E3000220F4A95EAF7D22FD095C695C695C37072
:100E40008D2BC23069F0C33071F0C13031F00E9497
:100E5000AD08C9CF823038F2D8CF0E94A708C3CFDF
:100E60000E94B308C0CF0E946D08BDCFCF70112380
:100E700039F08C2F0E947F088D2F0E94AF05B3CFD1
:100E80008D2F0E94B6058C2F0E948B08ACCFD23FCD
:100E900031F170F4D03FB9F0D13FB1F1112309F431
:100EA00051C0002309F44BC08D2F0E9413059BCF26
:100EB000D33FE1F0D43F21F11111F3CF011150C024
:100EC0008C2F8F71E1CF112341F0053008F08BCFCB
:100ED0008C2F8F710E949B0886CF0530F7CF8C2F07
:100EE0008F711111D1CF0E947F087DCF112329F07E
:100EF0008C2F8F710E94760876CF0E94720873CF74
:100F00008091020382FD06C08C2F8F71112309F49A
:100F1000BBCFE9CF112349F0CF718C2F0E947F08FE
:100F200063E08C2F0E943C0D5ECF81E00E945A0D41
:100F3000023008F458CF82E00E945A0D54CF8C2F13
:100F40008F71D1CF002309F4BBCFD93349F4EFEF30
:100F5000F7EE23E0E150F0402040E1F700C0000050
:100F60008D2F0E945B053FCF0F931F93CF93DF938D
:100F7000EC01688179818D810E946B098C010E944E
:100F8000B9080E945108B801CE010E94BD05DF9149
:100F9000CF911F910F910895CF93DF93EC018C8136
:100FA000882399F0CE010E941B04811111C00E9478
:100FB000680C882351F08D81882339F080910203D9
:100FC00082FF03C082E00E945A0DDF91CF91089505
:100FD000CE010E94B407CE010E94EA03F6CF80E062
:100FE00090E00E94C61F80E090E00E94EC1F0E94EB
:100FF000920C0E942A0D0E947D190E94601908958A
:101000000E94EF200E94EF0708950E94810C0E9429
:1010100000080895282F92959F70963091F060F403
:10102000925F9F70923030F481E0203F79F030F48D
:10103000283E30F080E008959A5FF3CF243FD1F747
:10104000089581E0283EE0F3213FF9CF0895FC01A7
:101050008481882339F0808191810E945E090E94F9
:101060000A08089580E00895A6E0B0E0EAE3F8E019
:101070000C94AF2B2696E2E00C94CB2BA7E0B0E0CB
:10108000E4E4F8E00C94AF2B2796E2E00C94CB2B31
:1010900008950E94480808950E9449088093CC0151
:1010A000089508950E944C0808959091CC01892BD1
:1010B0000E944C0808959091CC0189230E944C080D
:1010C00008959091CC0189270E944C0808950E94B0
:1010D000480808950E94670808950E946A0880934E
:1010E000CB01089580E00E946D08089591E001C051
:1010F000990F8A95EAF7892F0E946D08089521E0DB
:1011000030E001C0220F8A95EAF78091CB01822B53
:101110000E946D08089521E030E0A90102C0440F4B
:10112000551F8A95E2F7CA0180959091CB018923DA
:101130000E946D08089521E030E001C0220F8A95D9
:10114000EAF78091CB0182270E946D080895909163
:10115000CB01892B0E946D0808959091CB018923C2
:101160000E946D0808959091CB0189270E946D0817
:10117000089508959B01677091E001C0990F6A95E9
:10118000EAF763E0369527956A95E1F7B901660FAE
:10119000771F260F371FFA01E20FF31F40E050E0E0
:1011A000682F70E08191DF0111979B01042E02C02E
:1011B000369527950A94E2F721702195282729234F
:1011C00028272C934F5F5F4F4330510559F70895FF
:1011D0009C01A82FA77083E0369527958A95E1F7A3
:1011E000C901880F991F820F931FFB01E80FF91F98
:1011F00040E050E080E0219130E00A2E02C03695B8
:1012000027950A94E2F721703327042E01C0220F9C
:101210000A94EAF7822B4F5F5F4F4330510559F72D
:101220000895282F862F943068F42A3058F4622FBE
:1012300070E02AE0929F600D711D11244CEB51E08B
:101240000E94BA080895292F943068F48A3058F41F
:1012500090E06CEB71E03AE0239F800D911D11242A
:101260000E94E808089580E00895A0E0B0E0EBE374
:10127000F9E00C94AA2B7C010091CB018091CC0168
:10128000082BC3E0D0E010E0C8010C2E02C09595F9
:1012900087950A94E2F780FD09C02197A8F7D12C21
:1012A0008D2DCDB7DEB7E7E00C94C62BDC2EB70151
:1012B0008C2F0E947610019781F3F2CFCF93DF93AA
:1012C000D82FC92F0E9435096D2F7C2F0E947610D0
:1012D000DF91CF9108951F93CF93DF93162FD72FD0
:1012E0009091BB01992341F0862F972F0E945E09B0
:1012F000DF91CF911F910895882381F0862F972F3A
:101300000E943509C82F682F812F9D2F0E94110937
:10131000612F7D2F8C2F0E947610EACF862F972F7A
:101320000E942309C82FF4CFE1E0F0E0DF0102C002
:10133000AA0FBB1F6A95E2F7BD01DF0102C0AA0F29
:10134000BB1F4A95E2F76A2B01C0EE0F2A95EAF718
:10135000962F9823961302C08E2B0895E0958E2326
:101360000895242F462F682F8091CB010E94940965
:101370000E946D0808950F931F93CF93E091CD01C4
:10138000C7E08091CE018E1304C0CF911F910F91C1
:1013900008950E2F10E0CE9FF0011124E153FE4F6F
:1013A00020813181428153816481758186810E94CF
:1013B0003E08F8013196E770E4CF209107023091A2
:1013C00008024091090250910A0260910B0270914B
:1013D0000C0280910D020E943E08089580910D023A
:1013E000803178F480910C02882359F0E091CD018E
:1013F0002091CE01309108024091070257E02E1350
:1014000001C008956E2F70E05E9FF0011124DF018E
:10141000A153BE4F14968C911497882361F11196B5
:101420008C911197831327C08C91841324C0159637
:101430008C91159781111FC012968D919C91A0914E
:101440000902B0910A028A1B9B0B883C910598F413
:1014500080910D028F70806180930D02EB52FE4FE0
:1014600080818F708061808387E092E00E94CC074A
:101470000E94BB090895FB013196E770C0CFE0914F
:10148000CD019091CE0127E0E91302C080E00895DC
:10149000AE2FB0E02E9FF0011124E153FE4F3181B9
:1014A000361306C03081381303C03581341304C0AD
:1014B000FD013196E770E8CF81E008958F929F9209
:1014C000AF92BF92DF92EF92FF920F931F93CF9351
:1014D000DF93CDB7DEB72D970FB6F894DEBF0FBE02
:1014E000CDBF8C0186E0F801DE01189601900D92C7
:1014F0008A95E1F7F801E080F580A280B3808481CD
:1015000097E0892E92E0992E90910B0291111BC0C9
:10151000882309F4FCC0FF2009F43DC1C8010E94E2
:101520002708882309F437C187E0F801D401019026
:101530000D928A95E1F7C4010E9400050E94EE0910
:101540000E94DD09E4C0D0900C0220910902309184
:101550000A02A501421B530BDD2009F4DBC0483C05
:10156000510508F0A6C0882309F4D1C09091080263
:10157000918080910D02803108F06BC0991228C0D3
:10158000909107029E1124C0F1105DC08F708061A0
:1015900080930D020E94DD0987E092E00E94CC0753
:1015A00080910D02F8018683F12C8F2D2D960FB6B8
:1015B000F894DEBF0FBECDBFDF91CF911F910F9189
:1015C000FF90EF90DF90BF90AF909F908F90089525
:1015D000F11039C040E0692D8E2D0E943F0A40E095
:1015E000692D8E2D0E943F0AF82E8111DDCF88854E
:1015F00099850E945E09292F22952F70903450F40E
:101600009F70223080F0992399F0F80196819031F3
:1016100078F4CBCF2A5F2F70223078F0C8010E9477
:10162000CC07FD2CC2CF992319F0882309F4BDCF34
:10163000805E883008F4B9CFF1CF803F08F4B5CF91
:10164000815F8230F7CF80910D02816080930D021F
:10165000ABCF991207C0909107029E1103C0FF20E3
:1016600009F479C0C8010E942708882309F493C0AF
:10167000FF2009F490C080910D02803288F0209103
:101680000702309108023A832983BC82AB82909191
:101690000B029D831E828F83CE0101960E94CC0790
:1016A00087E0F801A7E0B2E001900D928A95E1F79A
:1016B00045CF90910D029031A0F4488559856A85F7
:1016C0007B858C859D850E94340887E092E00E948E
:1016D000CC0787E0F40111928A95E9F70E94DD09B1
:1016E00063CF8823A1F02091080281812813BACF0B
:1016F000809107028E11B6CFF110B4CF9683C80146
:101700000E94CC0787E0F40111928A95E9F7FF2443
:10171000F3944BCF483C510508F041C08823B9F3FE
:10172000FF20C9F190910802818198132AC080910D
:1017300007028E1126C080910D0280FD19C08031F4
:10174000B8F08683807F803F39F08681982F907F24
:10175000905F8F70892B8683C8010E94CC0787E039
:10176000F801A7E0B2E001900D928A95E1F7E8CE8A
:1017700087E0F801A7E0B2E001900D928A95E1F7C9
:10178000C6CFC8010E94270881118ACF80910D021F
:10179000816080930D02C8010E94CC07B8CF4885B4
:1017A00059856A857B858C859D850E94340891CFFB
:1017B000AEE0B0E0EEEDFBE00C94AE2B288739876D
:1017C0004A875B876C877D878E87CE0108960E944B
:1017D0005E0A8823B1F06C85662341F0288539853F
:1017E0004A855B857D858E850E943E0817E0809145
:1017F000CD019091CE0189133EC02E96E3E00C946A
:10180000CA2B87E0FE013896DE01119601900D92F9
:101810008A95E1F72091CE014091CD018C858823F6
:1018200029F330E0C90101968770992750E08417A9
:10183000950799F097E0929FD001939FB00D1124E6
:10184000A153BE4FFE01319601900D929A95E1F79A
:101850008093CE010E94BB09C9CF0E940508109257
:10186000CE011092CD0187E0E7E0F2E0DF011D92AA
:101870008A95E9F7BBCF189FC001112481539E4F71
:101880000E945E0A882309F4B8CFE091CD011E9F23
:10189000F0011124E153FE4F2081318142815381B7
:1018A0006481758186810E943E088091CD0190E01F
:1018B0000196877099278093CD0199CF8091360248
:1018C000869586958695089580913602877008954D
:1018D00090913602977081E0911101C080E00895E7
:1018E00080916202089590916202982B9093620217
:1018F0000895982F909580916202892380936202C7
:10190000089510926202089590916102982B90932D
:1019100061020895982F90958091610289238093A8
:101920006102089510926102089508950E94950C35
:10193000089590913702292F2823222331F0809592
:101940008923809337020E94960C089508950E947F
:10195000A60C089590913802292F2823281729F0E2
:10196000982B909338020E94A70C0895909138020A
:10197000292F2823222331F0809589238093380250
:101980000E94A70C089580913802882329F01092B4
:10199000380280E00E94A70C0895CF93DF93C09196
:1019A000620280916102C82BD0913802DD2331F0B0
:1019B0000E94122081110E94C30CCD2B8C2FDF912D
:1019C000CF910895CF93DF93C0910201D09103018D
:1019D0000E94CD0C8883C0910201D091030148E0A0
:1019E00050E06EE272E0CE010E94E52B892B59F0A7
:1019F00088E0FE01AEE2B2E001900D928A95E1F737
:101A0000CE010E949D1FDF91CF910895CF93DF9368
:101A1000C0910001D09101010E94CD0C8983C09139
:101A20000001D091010140E250E06EE072E0CE0191
:101A30000E94E52B892B59F080E2FE01AEE0B2E076
:101A400001900D928A95E1F7CE010E94A81FDF91C7
:101A5000CF91089580912101882339F0809101036D
:101A600087FF03C00E94060D08950E94E20C0895AE
:101A700008950E94380D08959091020392FF11C0BD
:101A800098E0899F90011124622B609336020E9496
:101A90007F08809136028695869586950E94390D3D
:101AA00008950E947F0808951092360280E00E94F7
:101AB000390D0895909136028095892380933602DE
:101AC000282F277021110DC0891759F0909102031A
:101AD00092FF07C08695869586950E948B080E9486
:101AE000540D08959091020392FB222720F92817A4
:101AF00069F080FB92F99093020380910103909129
:101B000002030E94BB0D82E00E945A0D089580914D
:101B1000020382FB882780F991E089270E94720DD9
:101B2000089581E00E94720D089580E00E94720D78
:101B300008956FEF7FEF80E090E00E94372C0895CA
:101B400080E090E00E94032C863E9E4F19F40E9494
:101B5000881C089580E0089582E090E00E94FB2BAD
:101B6000089583E090E00E94FB2B089584E090E0CC
:101B70000E94032C0895BC0184E090E00E94372C61
:101B80000895AB01BC018FE090E00E942B2C0895DA
:101B9000AB01BC0183E190E00E942B2C089560E032
:101BA00070E0CB010E94C80D089560E070E0CB01A9
:101BB0000E94C10D0E94CF0D0895A8E0B0E0E3EEB1
:101BC000FDE00C94AF2B66EE7EEF80E090E00E948B
:101BD000372C60E082E090E00E94192C81E0809335
:101BE000CC0161E083E090E00E94192C60E074E198
:101BF00084E090E00E94372C60E086E090E00E9454
:101C0000192C60E087E090E00E94192C40E050E041
:101C1000BA0188E090E00E942B2C60E084E290E022
:101C20000E94192C60E087E190E00E94192C60E08E
:101C30008CE090E00E94192C60E08DE090E00E9422
:101C4000192C19821A821B821C821D821E821F82FD
:101C5000188648E050E068E170E0CE0101960E94ED
:101C6000092C40E050E0BA0180E290E00E942B2C69
:101C700080E00E94A11C0E94E01C0E94D50D2896C5
:101C8000E2E00C94CB2B0E94DD0D0895682F8EE0CE
:101C900090E00E94192C0895A6E0B0E0E2E5FEE095
:101CA0000C94AD2B0E94D8218C01809163029091FD
:101CB00064028017910779F019821A820E94D82154
:101CC000BC0149815A8180E090E00E94D0041093C9
:101CD0006402009363022696E4E00C94C92B0E94F0
:101CE000E421609371027093720280937302909367
:101CF000740260936D0270936E0280936F029093F2
:101D000070020895089508950E94820E089508951E
:101D10000E94870E08958EE691E10E94D7120E94DC
:101D2000830E0E94840E089581E008950E94940E0F
:101D300008950E94940E0895089508950E949C0E9F
:101D40000E949D0E08950E94A00D811102C00E9464
:101D5000430E0E94AC0D809375020E94B60D9093C5
:101D60000203809301030E945B150E94B10D0E9443
:101D700052088091CB010E946A0808950E94CF21E9
:101D80000E94F01C0E9427120E94A30E0E94A4042D
:101D900080E00E9424130E94880E0895A6E0B0E01F
:101DA000E4EDFEE00C94A32B0E94960E81110EC070
:101DB0000E944C0E0E94851E0E9403150E949E19CF
:101DC0000E94B7042696EEE00C94BF2B0E943D12B1
:101DD00025E6822E22E0922E640110E0F601E190C9
:101DE000F1906F01812F0E9478111F5F143009F468
:101DF00053C0E816F90691F38091750281FD0E94A7
:101E000081110E94990E782EF12C662463948F2DF7
:101E10000E9478118C01F401A190B1904F018A15B4
:101E20009B0569F1A826B926E12CCC24C394D12CBA
:101E3000C6018A219B21892BC1F07720B1F0E9826C
:101E4000FA820E94D8219C838B836D8221E0C60197
:101E500080239123892B09F420E049815A816B81E9
:101E60007C818D81922F0E94D004E394CC0CDD1CE8
:101E7000FAE0EF12DDCFF401329711830083F3947F
:101E800084E0F812C4CF0E946F0E0E94851E0E944B
:101E900003150E94CF1392CFE816F90609F0ACCFD4
:101EA00087CF1F93CF93DF930E947B10EC018115A6
:101EB00022E5920708F053C0811540E5940708F029
:101EC000DDC0803E9105F8F48D3C910508F0AEC070
:101ED000883A910580F4853A910508F099C08130DF
:101EE000910521F00497813A910550F4CE01DF91DC
:101EF000CF911F910895885A91094B9708F48BC090
:101F0000C0E0D0E0F3CF811550E49507F8F4C11597
:101F100080E2D80708F0CBC0C83ED10538F3CE0127
:101F20009A9581159F4160F78D2F0E941F11182FE0
:101F3000CE0199270E947B10212F30E0322F2227DB
:101F4000E901CC27DF71C82BD92BD0CF99270E946C
:101F50007B10CC27DF70C82BD92BD06AC7CF803835
:101F600042E59407C8F5803652E5950708F067C04A
:101F7000C03482E5D807B0F08C2F8695869587709F
:101F800020E2829FC0011124C37021E030E0A9014A
:101F900002C0440F551FCA95E2F7EA01C82BD92B9E
:101FA000DC68A4CFC03252E5D50708F041C08C2FC1
:101FB0008695869520E2829FC0011124C37021E09E
:101FC00030E0A90102C0440F551FCA95E2F7EA01AB
:101FD000C82BD92BDD688ACF803C52E5950760F489
:101FE0008F71C03AD24508F03FC090E0982F882703
:101FF000EC01C46FD06A7ACF805C9245809708F07C
:102000007FCFDC2FCC27CC27DF71C06FD06A6ECF9B
:10201000A497D0646BCFC85AD0E0CC0FDD1FC85A4C
:10202000DE4F0990D881C02DD46460CFD0655ECFDB
:10203000CF71D0E0DC2FCC27C16FD06A57CF869507
:102040008695877020E2829FC0011124C37021E031
:1020500030E0A90102C0440F551FCA95E2F7EA011A
:10206000C82BD92BDA6842CF0E941F11C82FD0E0AD
:10207000DC2FCC27CC27DF71D06238CF8F710E9444
:102080001F1165E0D695C7956A95E1F7CF70D0E04E
:10209000DC2FCC27282F30E084FF05C054E0220F2E
:1020A000331F5A95E1F7C22BD32BD0691FCF8D2F49
:1020B0008F710E941F11182FCE0199270E947B104B
:1020C000212F30E0322F222722273F71282B392B56
:1020D000E901D2CF462F672F743028F44A3018F424
:1020E0000E940F16089580E090E008950E946A1003
:1020F0000E94510F0895803E9105D1F1C8F48133BB
:10210000910509F47FC048F48932910509F46FC044
:102110008A32910509F47DC0089589339105E1F073
:1021200082389105C9F08533910509F45BC00895A3
:10213000843E9105D1F148F4823E910531F1833E10
:10214000910541F181EE90E00895863E9105C1F13F
:10215000873E9105E1F1089520910103237021113B
:1021600065C02091020323FF14C089E290E0089526
:102170002091010320FD43C03091020330FF09C0CC
:1021800024FF4EC080E090E008952091010322FDDD
:10219000F7CF08952091010322FD45C0309102033D
:1021A00030FD44C024FFF5CFEDCF2091020321FF85
:1021B000F0CF8091010384FDE5CF87EE90E0089594
:1021C0002091010323FFE5CF24FDDCCFF6CF209142
:1021D000010323FD2EC03091020331FFE3CF84EED3
:1021E00090E008952091010325FFD3CFBECF209129
:1021F000010325FD21C02091020323FFCACF89E3FB
:1022000090E008952091010326FFC3CF8AE290E079
:1022100008952091010326FFBCCF81E390E008954B
:1022200083EE90E0089582EE90E0089580EE90E0D5
:10223000089586EE90E0089585E390E0AACF90910E
:10224000010392FF10C041E0282F2471243009F0CF
:1022500040E031E0282F2871283009F030E04317A2
:1022600011F02CE0822793FF10C041E0282F247149
:10227000243109F040E031E0282F2871283109F09D
:1022800030E0431711F02CE082273091020330FF39
:1022900010C051E0282F2171213009F050E041E0B9
:1022A000282F2871283009F040E0541711F029E058
:1022B000822731FF10C041E0282F2171213109F020
:1022C00040E031E0282F2871283109F030E0431731
:1022D00011F029E0822794FD877E089580E008951B
:1022E00008950E947011089508950E947411089530
:1022F000E82FF0E0EE0FFF1FE55FFC4F808191813A
:102300000895089580EA8A95F1F7089500C0089528
:102310000E9482110895F894E82FE295EF70F0E0A2
:1023200041A18F7021E030E0B90102C0660F771F34
:102330008A95E2F7CB01962F9095942391A392A1D1
:10234000892B82A378940895CF93DF9381E30E9431
:102350008B1183E30E948B1182E30E948B1186E331
:102360000E948B11CEE8D1E089918F3F11F00E943D
:102370008B1181E0C839D807B9F7DF91CF91089563
:10238000A0E0B0E0E6ECF1E10C94A82BEC01B62E55
:10239000062F10E0C80188569E4F7C01FC01808109
:1023A0008F3F09F44FC0F894E82FE295EF70F0E00A
:1023B00091A18F7021E030E001C0220F8A95EAF7E9
:1023C000892F822B81A382A12095282322A3789490
:1023D0000E948611EEE8F1E041E050E0C12CD12CE2
:1023E00021912F3F89F0A22FA295AF70A05EB0E09F
:1023F0008C9190E02F7002C0959587952A95E2F711
:1024000081709A01882311F020E030E0C22AD32A9B
:10241000440F551F81E0E839F80711F7F701808173
:102420008F3F11F00E948B1161E0C114D10409F4B7
:1024300060E08B2D0E948811000F111FC00FD11F6B
:10244000D982C882CDB7DEB7E9E00C94C42B0E94D4
:10245000A41188E0EBE0F3E0DF01982F1D929A953C
:10246000E9F7E3E0F3E0DF011D928A95E9F784E004
:102470000E947A120E9471110895A8E0B0E0E3E48E
:10248000F2E10C94AC2BFE01319688E0DF011D9245
:102490008A95E9F710E0FE2E0F2F612F8F2D902FD8
:1024A0000E94C0111F5F1430C1F748E050E06F2D4B
:1024B000702F83E093E00E94E52B21E0892B81F4CB
:1024C00020E044E06BE073E083E093E00E947B1245
:1024D000182F0E947511812F2896E5E00C94C82BC7
:1024E00088E0EF2DF02FA3E0B3E001900D928A95E4
:1024F000E1F7E7CF0895A0E0B0E0E1E8F2E10C9465
:10250000A92BD82EE92EF62ED72F042FC22F222347
:1025100079F081E0809378020E94D821909377022D
:102520008093760280E0CDB7DEB7E8E00C94C52B4F
:10253000C0907802CC20B1F380917602909177021E
:102540000E940122059770F310E0000F111FA801EF
:102550006D2D7E2D8F2D9D2F0E94E52B892B41F017
:10256000A8016D2D7E2D8F2D9D2F0E94F22BCC2D3D
:10257000109278028C2FD7CF0E9470250E94BE0E39
:102580000E947D2508950E9482250E94CE0E0E9401
:102590009C2508950E9471210E9456250E948B0E51
:1025A0000E94BC120E94C3120E949E0EFBCF909309
:1025B000B5018093B4010895AB0124E630E0BC017D
:1025C00088E70E940E239C0181E0232B09F080E024
:1025D0000895AB0124E630E0BC0188E70E9459234E
:1025E0009C0181E0232B09F080E008950F931F9355
:1025F000AC019B0104E610E060E488E70E94A6239A
:102600009C0181E0232B09F080E01F910F91089538
:102610000E94D822089508950E940B130895E3E1C3
:10262000F3E080E092E0DF019C011D9221503040F8
:10263000E1F7F0931805E09317058FEF9FEF909364
:102640009F0280939E020895A5E0B0E0EAE2F3E1E4
:102650000C94AF2B0E940B130E940C1390E280FF8E
:1026600090E880939A02909399020E9408136BE07D
:1026700070E087E094E00E94E912811106C01D829B
:102680008D812596E2E00C94CB2B80919A0265E037
:1026900070E081FD28C082E094E00E94E912882366
:1026A00071F36DE070E080EF93E00E94E9128D839A
:1026B000882329F30E94E421DC01CB01925FA84D1D
:1026C000B84F8093130590931405A0931505B0930C
:1026D00016050E940F1381E080939D0280939C0257
:1026E00010929B02CDCF8DEF93E0D7CF209199022E
:1026F00036E0839FC0011124269F800D911D112477
:10270000811522E0920714F080E090E08D5E9C4FEE
:1027100090931805809317050895CF93DF93B82FF2
:10272000A92F9B0180911705909118058351934023
:10273000AC01460F571F4130524020F020E032E0FC
:10274000281B390B40919E0250919F02EB2FFA2FCC
:10275000280F391FC1E0D0E08217930738F050935B
:102760009F0240939E02DF91CF9108956491DC0116
:10277000AD5EBC4F7C91761779F06C93BC01A5E0FF
:1027800076956795AA95E1F7DE0102C0AA0FBB1FF7
:102790006A95E2F74A2B5B2B01963196DDCFA4E0D8
:1027A000B0E0E5EDF3E10C94AF2B80919D02811137
:1027B00006C080919C022496E2E00C94CB2B0E94F0
:1027C000E421DC01CB01925FA84DB84F8093130543
:1027D00090931405A0931505B093160580919C0263
:1027E0008111E7CF62E070E08EEE93E00E94E91283
:1027F0008823F9F281E080939C02DBCFA4E0B0E073
:10280000E4E0F4E10C949F2B8C8380919E029091E4
:102810009F02892BE9F080919D028823C9F0809165
:102820009B02811115C00E94CF1310E01B8244242B
:102830004394512C00E267E0F62E80919E02909125
:102840009F02009729F0112351F0FC81F11107C07C
:102850002496E2E10C94BB2B2B812F5F2B833B81D1
:10286000C32ED12C520102C0AA0CBB1C3A95E2F730
:10287000950128233923232B79F380919A0280FD37
:102880003DC096013695279536952795922F8B81D9
:102890008295880F80763FE1380F80930601209360
:1028A00009013093070190930A0167E070E084E02A
:1028B00091E00E94DC12882359F2C60125E0880FBE
:1028C000991F2A95E1F720919A0220FD20C060E22D
:1028D00070E08D5E9C4F0E94F612882309F4B8CFF9
:1028E000A094B09480919E0290919F028A219B2196
:1028F00090939F0280939E021F5F9FCF8B81880FD2
:10290000880F880F37E0380F20E093E0C6CFA9E7A3
:10291000B2E0E02F1D92EA95E9F720EA31E03A8330
:1029200029836CE971E0E981FA81A191FA83E98355
:10293000FB012191BF01280F392F311DA9014D5EE7
:102940005C4F1A01EA2FF0E0E758FD4F20E030E03D
:102950006F2C621A842C022E01C0880C0A94EAF7AC
:102960006101912CD601ED906D01E820462D4919A9
:10297000477050E0BE2D042E01C0BB0F0A94EAF749
:102980007B2E5195419551094770552701C0E6941A
:102990004A95EAF7EB2A4081E42AE082939448E0E2
:1029A0009412E0CF2F5F3F4F31962830310581F6EA
:1029B000A4EAB1E0E981FA81AE17BF0709F0B3CF0D
:1029C00060E270E089E792E086CF80919C0290916E
:1029D0009D02911103C091E089270895882369F031
:1029E00062E070E08CEE93E00E94E912811103C076
:1029F00080919C02089510929C0280919C02EBCFE2
:102A00000E946E030895A4E0B0E0E9E0F5E10C94C3
:102A1000AF2B80919D02882361F160E080E00E94ED
:102A200076130E94001580E00E94FE1380919C02A4
:102A30008823F9F00E94E42169837A838B839C8345
:102A40008091130590911405A0911505B09116057C
:102A500029813A814B815C81281B390B4A0B5B0B26
:102A6000DA01C9018F3F9F4FAF4FBF4710F40E945B
:102A7000E5142496E2E00C94CB2B0E94990D089566
:102A800080E00E947811817008950E943D122FEF1E
:102A900086E791E0215080409040E1F700C00000BF
:102AA0000E943D120E944015882321F00E943D158E
:102AB0000E94542208950E944515089584E00895C7
:102AC00050E0440F551F94E1699F400D511D1124A2
:102AD00090E5899F400D511D1124CA0189960895E2
:102AE0000F931F93CF93DF93982F962B9430B8F4C6
:102AF0004A30A8F40E9460158C010E94FB2BC82F5D
:102B0000D0E0DC2FCC27C80101960E94FB2B9E0150
:102B1000282BC901DF91CF911F910F91089580E07B
:102B200090E0F8CF0F931F93CF93DF93122F032FD3
:102B3000982F962B943068F44A3058F40E94601510
:102B4000EC01602F0E94192C612FCE0101960E948A
:102B5000192CDF91CF911F910F9108951F93CF935F
:102B6000DF93D0E0C0E011C0412F6C2F8D2F0E9469
:102B700076039C01412F6C2F8D2F0E9492151F5FB1
:102B80001A3091F7CF5FC43011F010E0EDCFDF5F66
:102B9000D43041F7DF91CF911F910895EF92FF92CA
:102BA0000F931F93CF93DF938C01EA017A01E60E16
:102BB000F71ECE15DF0529F4CDB7DEB7E6E00C949D
:102BC000C72B003481E0180740F4C80189960E94A1
:102BD000FB2B89930F5F1F4FECCF80E0FACFEF9272
:102BE000FF920F931F93CF93DF938C01EA017A0139
:102BF000E60EF71ECE15DF0529F4CDB7DEB7E6E009
:102C00000C94C72B003481E0180728F46881C801B0
:102C100089960E94192C21960F5F1F4FEBCF982F9A
:102C2000962B943028F44A3018F40E9470150895B9
:102C300080E090E0089580E1089587E992E00895AA
:102C4000EF92FF920F931F93CF93DF938C01EA01D2
:102C50007A01E60EF71ECE15DF0529F4CDB7DEB7F3
:102C6000E6E00C94C72B073982E0180748F4C80146
:102C700087599E4F0E94FB2B89930F5F1F4FEBCF0D
:102C800080E0FACFEF92FF920F931F93CF93DF93E1
:102C90008C01EA017A01E60EF71ECE15DF0529F454
:102CA000CDB7DEB7E6E00C94C72B073982E01807F2
:102CB00030F46881C80187599E4F0E94192C2196D3
:102CC0000F5F1F4FEACFCF93DF93C9E6D1E060E0FB
:102CD000CE010E94192C2196C11584E0D807B9F7BE
:102CE000DF91CF910895A8E0B0E0E9E7F6E10C9418
:102CF000A92BF82E2FE0281708F46FC08FEF93E070
:102D00000E94FB2B811169C009E611E0F11038C067
:102D10001A821982FE01339686E0DF011D928A95A0
:102D2000E9F76801BFEFCB1ADB0AC8010E94FB2B51
:102D300089831A82882309F450C08130D1F4780144
:102D400022E0E20EF11CC6010E94FB2B8A8388233D
:102D500009F443C09FEF980F9330F8F4680183E0C3
:102D6000C80ED11CC7010E94FB2B8B838823A9F1BD
:102D70001C8260E0CE0101960E94321B8601D1CFF9
:102D8000011584E0180749F1C8010E94FB2B0F5F71
:102D90001F4F8111F5CFFA94B9CF8430B9F402E016
:102DA00010E0C701AFEFEA1AFA0A0E94FB2BE1E03C
:102DB000F0E0EC0FFD1FE00FF11F8083882369F026
:102DC0008C3731F4FE01E00FF11F12826701D1CF81
:102DD0000F5F1F4F0730110521F72896E8E00C948C
:102DE000C52BCF93DF93EB0186319C4719F50E94E9
:102DF000700C9D819923A1F08A7A91E0811101C024
:102E000090E09093A002882349F085E30E94C120BE
:102E10000E942A0D80E0DF91CF91089589E2F6CFDC
:102E20008091A002882321F085E30E94D820F0CF72
:102E300089E2FBCF81E0EFCFCF93DF93EC01FB0181
:102E40008581882309F4D2C09E0130572332310591
:102E500008F0B2C00E94B60D909302038093010364
:102E6000FE01E150F047E232F10520F4E55AF34D5E
:102E70000C947F2B8091010381608093010393C0A8
:102E8000809102038860809302038DC080910103CA
:102E90008260F3CF809101038460EFCF80910103C2
:102EA0008860EBCF809102038160EDCF80910203B7
:102EB0008260E9CF809101038061DFCF80910103BF
:102EC0008062DBCF809101038064D7CF0E94050828
:102ED000809101038068D1CF809101038C60CDCFB8
:102EE000809102038360CFCF809101038E7FC5CF95
:102EF00080910203877FC7CF809101038D7FBDCF73
:102F0000809101038B7FB9CF80910103877FB5CF7B
:102F1000809102038E7FB7CF809102038D7FB3CF64
:102F2000809101038F7EA9CF809101038F7DA5CF72
:102F3000809101038F7BA1CF0E940508809101033E
:102F40008F779BCF80910103837F97CF809102037E
:102F50008C7F99CF8091010382FB992790F921E022
:102F6000922790FB82F990FB83F987CF809102032F
:102F7000982F909591708E7F892B90FB81F983CF4C
:102F800090910103892F8F7B96FF806476CF0E94FA
:102F9000050890910103892F97FB87F980586DCF21
:102FA00081E00E94460E80910103909102030E94ED
:102FB000BB0D0E94050880E0DF91CF91089580E06D
:102FC000F0CF90910103892F8F7E94FF806155CFC0
:102FD00090910103892F8E7F90FF81604ECF909159
:102FE0000203892F877F93FF88604DCF81E0E4CF74
:102FF000282F35EB2303C001112497FF04C080580C
:103000009109892F089580589F4FFBCF8091A70287
:1030100080FF0DC06091100170E0660F771F60386F
:103020007105C0F561157105B9F1862F089581FF0D
:1030300007C06091100184E0689FB0011124EFCFB8
:1030400082FF04C06091100188E0F6CF8091A60253
:103050008823E9F090910F016091100170E08917C9
:1030600030F093E0660F771F9A95E1F7D8CF869FEF
:103070009001879F300D112483E0220F331F8A9522
:10308000E1F7692F70E0C9010E942A2BC8CF68E0E0
:1030900070E0CBCF8FE7089581E008958091A7027B
:1030A00080FF0CC060910C0170E075956795759577
:1030B00067956115710561F1862F089581FF06C03E
:1030C00060910C0170E075956795F3CF60910C01EC
:1030D00070E082FD15C02091A5022223B1F09091ED
:1030E0000B0160910C0170E0291750F4269FA0019C
:1030F000279F500D1124692F70E0CA010E942A2BCE
:1031000060387105B0F28FE7089561E070E0D4CFC8
:1031100081E008959091AA022091AB02922B209118
:10312000AD02922B2091AC02922B992331F098E0C2
:103130009093A60291E09093A5028D3C31F40E94F9
:10314000061881958093AB020895E2E3E80FE2311F
:10315000B0F5F0E0E358F34D0C947F2B0E94061875
:10316000F1CF0E94061881958093AA0208950E94CB
:103170000618FACF0E944E188093AC0208950E9460
:103180004E188195F9CF0E944E1881958093AD021B
:1031900008950E944E18FACF815D990B21E030E02E
:1031A00001C0220F8A95EAF78091A902822B8093B1
:1031B000A90208958091A70281608093A7020895D3
:1031C0008091A7028260F9CF8091A7028460F5CF39
:1031D0004091AA028D3C59F48091AB0287FF0DC04B
:1031E0001092AB02442359F41092A60208C08E3C00
:1031F00081F48091AB0218169CF3442381F08091F6
:10320000AC029091AD02892B811159C01092A50298
:1032100008958F3C41F447FFF0CF1092AA028091AD
:10322000AB028823E0CF803D19F41416B4F3E5CF48
:103230009091AC02893D29F41916FCF61092AC026B
:10324000DCCF8A3D19F497FFD8CFF8CF9091AD022B
:103250008B3D29F497FFD1CF1092AD02CECF8C3D9C
:1032600019F41916CCF3C9CF9FE2980F983090F457
:10327000815D990B21E030E0B90102C0660F771F34
:103280008A95E2F7CB0180959091A90289238093DA
:10329000A902B3CF8D3D31F48091A7028E7F809338
:1032A000A702ABCF8E3D21F48091A7028D7FF7CF8F
:1032B0008F3D09F0A2CF8091A7028B7FF0CF0895B8
:1032C0000E94D8212091AA023091AB02232B222305
:1032D00021F08093A3029093A4022091AC0230913C
:1032E000AD02232B222321F08093A1029093A2020E
:1032F00088EA92E00E94B71F089586E0E8EAF2E0CB
:10330000DF011D928A95E9F71092A6021092A5029C
:103310001092A7020895FC01828181110DC0838162
:1033200081110AC08481811107C081E095819111CA
:1033300001C080E08170089581E0FCCFA6E0B0E09C
:10334000E4EAF9E10C94AC2B86E0E8EAF2E09E01B5
:103350002F5F3F4FD90101900D928A95E1F71092AE
:10336000AA021092AB021092AC021092AD028B81B5
:103370009C81892B8901882391F08091A3029091EF
:10338000A4020E9401229C018091A6028823C9F117
:103390004091110150E04217530708F43FC08D815E
:1033A0009E81892B882399F08091A1029091A2029D
:1033B0000E9401229C018091A502882309F467C024
:1033C00040910D0150E04217530708F46EC0B80158
:1033D00088EA92E00E940921811105C088EA92E002
:1033E0000E948B1981110E94601986E0F801A8EAF9
:1033F000B2E001900D928A95E1F72696E5E00C94F3
:10340000C82B409112019AE0499FA0011124421754
:10341000530728F68F5F8093A60202C08F3FD1F733
:10342000FB80FF2059F00E94061891E01F140CF059
:103430009FEF899F802D11248093AA02FC80FF209A
:1034400059F00E94061891E01F140CF09FEF899F1D
:10345000802D11248093AB028091AA02882309F465
:103460009ECFF090AB02FF2009F499CF0E94F8178D
:10347000811101C081E08093AA028F2D0E94F8176C
:10348000882319F08093AB028ACF81E0FBCF409173
:103490000E019AE0499FA00111244217530708F03A
:1034A00096CF8F5F8093A50202C08F3FD1F7FD803A
:1034B000FF2059F00E944E1891E01F140CF09FEF6E
:1034C000899F802D11248093AC02FE80FF2059F04B
:1034D0000E944E1891E01F140CF09FEF899F802DE1
:1034E00011248093AD028091AC02882309F46FCF40
:1034F000F090AD02FF2009F46ACF0E94F817811105
:1035000001C081E08093AC028F2D0E94F8178823C0
:1035100019F08093AD025BCF81E0FBCFA0E0B0E07B
:10352000E4E9FAE10C94A82BE82FF0E0EE5EFB4F03
:10353000B490282F26952695269530E0F901EE5473
:10354000FB4F0491877010E0082E02C01595079577
:103550000A94E2F701701127F901EE55FB4FE49050
:10356000F12C082E02C0F594E7940A94E2F791E05A
:10357000E922FF24F901EE56FB4FC491D0E002C0CE
:10358000D595C7958A95E2F7C170DD27C62ED12C57
:103590000115110549F5E114F10431F086EE0E94A0
:1035A0001305C601009771F5B6018B2D0E948E059B
:1035B000C601009779F5E114F104A1F50115110593
:1035C00031F081EE0E945B05C6010097C9F5CD2B55
:1035D00031F08CE20E94A605C114D104C9F5CDB723
:1035E000DEB7E9E00C94C42B81EE0E941305C601FE
:1035F000009789F2EFE9FFE03197F1F700C0000092
:103600000197F6CFEFE9FFE03197F1F700C0000036
:103610000197C8CFEFE9FFE03197F1F700C0000054
:103620000197C7CF86EE0E945B05C601009731F275
:10363000EFE9FFE03197F1F700C000000197F6CF06
:10364000EFE9FFE03197F1F700C000000197BDCF2F
:103650008FE99FE00197F1F700C0000091E0C91ADF
:10366000D108BACFEF92FF921F93CF93DF93EC0173
:10367000162F8881882309F45AC0813009F053C07D
:103680008981813071F47E0182E0E80EF11C8A812B
:103690000E94A605E701812F90E00097E1F52196B1
:1036A000E8CF823041F47E01E2E0EE0EF11C8A8127
:1036B0000E941305EFCF833041F47E01F2E0EF0E5C
:1036C000F11C8A810E945B05E5CF843011F02196C0
:1036D000E2CF2A81229680E090E06AE0AE014F5F5F
:1036E0005F4F2053330B2A30310550F0009799F289
:1036F000EFE9FFE03197F1F700C000000197F6CF46
:10370000689FF001699FF00D1124C9018E0F9F1F62
:103710002981EA01E3CFEFE9FFE03197F1F700C03B
:1037200000000197BACF612F0E948E1AB8CFDF91A7
:10373000CF911F91FF90EF9008950F931F93CF9318
:10374000DF93C42FD22FFC0185818823C9F04093D9
:10375000B0020E94D8219093AF028093AE0280E223
:103760008C0F883040F4C77081E001C0880FCA9583
:10377000EAF70E94AF05DF91CF911F910F91089555
:103780001091B00214133CC08091AE029091AF0230
:103790000E940122883C910598F5C0E2CD0F1D17CB
:1037A00041F180E2810F883040F4177081E001C060
:1037B000880F1A95EAF70E94B605C83020F0802FCE
:1037C0000E94A605D8CF91E08D2F877001C0990F78
:1037D0008A95EAF7892F0E94AF05802F0E94A605DF
:1037E000D77081E001C0880FDA95EAF70E94B6052C
:1037F000C2CF802F0E94A605C83008F0BCCFF0CF02
:1038000080E28C0F883008F0B6CFC77081E001C02D
:10381000880FCA95EAF7EACF0F93FC01CB01E85174
:10382000FC47E730F10590F5E157F34D0C947F2B01
:1038300006E221EE41EE6AE17CE70E949D1B80E0FA
:103840000F91089507E225EE45EE6BE17CE7F5CF99
:1038500006E221EE40EE68E17CE7EFCF07E225EEDD
:1038600044EE69E17CE7E9CF06E221EE42EE6CE14D
:103870007CE7E3CF07E225EE46EE6DE17CE7DDCFA6
:1038800008E221E045EE6EE17CE7D7CFFB018581C0
:1038900081111092B00281E0D3CFCF93DF939C01CE
:1038A000FB0127378CE7380739F028373C47F1F020
:1038B00081E0DF91CF9108958581882391F00E9466
:1038C0007F1C0E947F080E94851CD82F0E94821CAA
:1038D000C82F0E947F1C4D2F6C2F0E94B10980E0E1
:1038E000E8CF0E947F1C0E948B08EDCF8581882342
:1038F00019F00E94821CE5CF0E94821CF4CF8091B7
:10390000150108958091140108958091130108957F
:1039100085E290E00E94FB2B843289F486E290E0FD
:103920000E94FB2B813159F487E290E00E94FB2B2F
:1039300091E0893009F090E0892F8170089580E04E
:10394000FCCF882381F064E285E290E00E94192C8C
:1039500061E186E290E00E94192C69E087E290E044
:103960000E94192C08956FEF85E290E00E94192CB7
:103970006FEF86E290E00E94192C6FEFEFCF089571
:10398000A4E0B0E0E6ECFCE10C94AF2B88E290E020
:103990000E94FB2B282F30E040E050E0CA01B90123
:1039A0002496E2E00C94CB2B0895CF93C62F0E946F
:1039B000D41C6C2F88E290E00E94192CCF910895BE
:1039C00080E00E94A11C60E070E0CB010E94D51C49
:1039D0000E94AE150E94631681E00E94A11C08950A
:1039E0000E94BF1C0E94C01C0E94D41C0E94881C04
:1039F000811102C00E94E01C089508959C01FB0102
:103A00008581882351F0A90157574038510530F47A
:103A1000822F0E94731680E0089581E008952FEFB1
:103A2000FC01208308950E940F1D089580E00895F1
:103A3000CF92DF92FF920F931F93CF93DF93CDB777
:103A4000DEB72E970FB6F894DEBF0FBECDBF8D83C5
:103A50009E83F62E8D819E810E94161D811115C0B8
:103A6000AD81BE81EC91E150E33140F5F0E0EA56E2
:103A7000F34D0C947F2BED81FE8111828CE08283CB
:103A80006F2D8D819E810E944B242E960FB6F89447
:103A9000DEBF0FBECDBFDF91CF911F910F91FF9081
:103AA000DF90CF900895AD81BE8111968C918330C7
:103AB00099F148F4813081F08230E9F08FEFAD81E7
:103AC000BE818C93DDCF8430C9F7ED81FE811282F7
:103AD000138214821582D4CF0E94E4210E94852B88
:103AE0006F83788789879A87ED81FE8162837383EC
:103AF00084839583C5CF0E94C01C0E94852B6B8751
:103B00007C878D879E87AD81BE8112966D937D9354
:103B10008D939C931597B4CFED81FE81028110E0C7
:103B20006F01B2E0CB0ED11C043011050CF0A8CF10
:103B3000802F0E947811D60111969C9311971296AE
:103B40008C930F5F1F4FEDCFED81FE81818182301D
:103B500049F0853009F0B2CFED81FE8182810E946B
:103B6000FD1C8ECFAD81BE8112968D919D910D90E1
:103B7000BC91A02D89839A83AB83BC83BC01CD010A
:103B80000E94852B0E94D51C7BCFAD81BE811396F0
:103B90004C91139712966C91129711968C910E94EA
:103BA0007015982789279827ED81FE819583848356
:103BB00067CFAD81BE8114962D913C911597322728
:103BC0002327322713964C91139712966C911297D4
:103BD00011968C910E94921553CF0E94AE1550CF32
:103BE0006F2D8D819E810E94131D4ACF0E941B164E
:103BF000ED81FE81818344CF0E941D16982789277D
:103C00009827AD81BE8112969C938E93119738CFE1
:103C1000ED81FE81638170E081819281AF014C5F13
:103C20005F4F9827892798270E94201629CFAD81BA
:103C3000BE8113966C91139770E011968D919C91B3
:103C40001297AD014C5F5F4F9827892798270E94F4
:103C5000421616CF0E94631613CF0E945E15C8CF7E
:103C6000AD81BE8113966C91139770E011968D9182
:103C70009C911297AD014C5F5F4F98278927982739
:103C80000E94CE15FDCEED81FE81638170E08181C1
:103C90009281AF014C5F5F4F9827892798270E9438
:103CA000EF15EECE9C019A9581159F4468F4332759
:103CB000C9010497849778F02B52310981E02E30A6
:103CC000310550F080E008952F3F310589F380F3EE
:103CD00020E030E0F1CF81E008950E94521E089567
:103CE0000E946D1E882381F0E091B702F0E0EE0F94
:103CF000FF1FE854FD4F808191818F3F2FE792078E
:103D000019F001969183808308954F925F926F928C
:103D10007F928F929F92AF92BF92CF92DF92EF925B
:103D2000FF92CF93DF93CDB7DEB729970FB6F89404
:103D3000DEBF0FBECDBFC090B802D090B9020D2C2F
:103D4000000CEE08FF082091160130E0E8EBF2E0ED
:103D500081E090E03296281739070CF0D0C08091AE
:103D6000EA029091EB02A091EC02B091ED02BC014D
:103D7000CD010E9410222B013C01909116019987E0
:103D80009601A701F7FE04C020E030E040E050E0DB
:103D9000A0E6BAEE0E948C2B69837A838B839C8386
:103DA000B985A8ECBA9F90011124032E000C440B96
:103DB000550B240D351D461D571DA5E0B0E00E9492
:103DC0008C2B6D837E838F83988769817A818B8129
:103DD0009C812D813E814F8158850E943E2B490157
:103DE0005A01213F31054105510528F030EF832E5E
:103DF000912CA12CB12C99EC491651046104710449
:103E000014F18091B70290E0019669E170E00E94A0
:103E10002A2B8093B702880F991FFC01E854FD4FAD
:103E2000118210828985883108F087E18F5F809345
:103E300016010E94E4216093EA027093EB028093E2
:103E4000EC029093ED02A2E0CA16D104E104F10461
:103E50001CF4812C912C54018091B3029091B402F6
:103E6000A091B502B091B602BC01CD010E94102212
:103E70006B017C0195E6C916D104E104F10484F0DC
:103E80000E94E4216093B3027093B4028093B50260
:103E90009093B6028091EE028093B2028092B102BA
:103EA000A091B202AD83A091B1028D81A81BBB0B82
:103EB000A70196010E94972B69837A838B839C8349
:103EC00024E630E040E050E00E94602B9D81920F9C
:103ED0009093EE0229960FB6F894DEBF0FBECDBFC9
:103EE000DF91CF91FF90EF90DF90CF90BF90AF9098
:103EF0009F908F907F906F905F904F90089540813A
:103F00005181052E000C660B770BC40ED51EE61EE4
:103F1000F71E01961FCF9093F4028093F302089549
:103F2000E091F302F091F402309729F00190F081D2
:103F3000E02D0995089580E00895E091F302F09155
:103F4000F402309721F00280F381E02D0995089565
:103F5000DC01E091F302F091F402309739F086E051
:103F60008C930480F581E02DCD0109950895DC0145
:103F7000E091F302F091F402309739F082E08C93F3
:103F80000680F781E02DCD0109950895A3E0B0E00A
:103F9000ECECFFE10C94AF2B9C018091F10290912D
:103FA000F20282179307A1F03093F2022093F102FC
:103FB000E091F302F091F402309751F083E08983AD
:103FC0003B832A830084F185E02DCE01019609957B
:103FD0002396E2E00C94CB2BA3E0B0E0E2EFFFE10C
:103FE0000C94AF2B9C018091EF029091F00282170C
:103FF0009307A1F03093F0022093EF02E091F302D7
:10400000F091F402309751F084E089833B832A8356
:104010000084F185E02DCE01019609952396E2E01A
:104020000C94CB2B20910201309103012E5F3F4F66
:10403000809121018823A9F08091010387FF11C09D
:1040400020910001309101012E5F3F4F9DE180E002
:10405000F90140812F5F3F4F41118F5F9150C0F7B1
:10406000089595E0F4CF882321F1909121019923BF
:1040700011F19091010397FF1EC0982F9695969588
:104080009695803FB0F4E0910001F0910101E90FB5
:10409000F11D228130E0877041E050E0BA0102C09A
:1040A000660F771F8A95E2F72623372381E0232BBB
:1040B00091F480E008952091020130910301F9010B
:1040C0003296285F3F4F9191981721F0E217F3073E
:1040D000D1F7EFCF81E008959C01FC0132968FEF7C
:1040E00090E04191461751F08F3F19F4411101C002
:1040F000892F9F5F9630A9F78F3F09F40895280F05
:10410000311D87FD3A95F901628308959C01FC01F8
:104110003296285F3F4F8191861303C0DF011197CC
:104120001C92E217F307B9F70895FC01862F8695D4
:1041300086958695603F60F4E80FF11D677021E079
:1041400030E001C0220F6A95EAF78281822B8283D8
:104150000895FC01862F869586958695603F80F4AC
:10416000E80FF11D677081E090E09C0102C0220F12
:10417000331F6A95E2F7B9016095828168236283F3
:104180000895682F80912101882359F080910103BF
:1041900087FF07C080910001909101010E94952046
:1041A000089580910201909103010E946C2008956E
:1041B000682F80912101882359F08091010387FFA6
:1041C00007C080910001909101010E94A9200895EB
:1041D00080910201909103010E94862008958091B0
:1041E0002101882379F08091010387FF0BC0E091C2
:1041F0000001F091010132968EE1DF011D928A9556
:10420000E9F70895E0910201F0910301329686E00A
:10421000F4CFDC01FB0111969C91119781819813D9
:1042200022C012968C911297882319F092818913DB
:104230001AC013968C911397882319F093818913D0
:1042400012C015968C911597882319F095818913C2
:104250000AC014969C91992321F081E024812913AE
:1042600003C080E001C081E08170089508950E943C
:10427000362108958F5F8093F5020E9437210895BB
:1042800083E08093F5020E94372108950E943A212D
:10429000089581E08093F5020E94372108950E94DD
:1042A00049210895089508950E945321089508957D
:1042B00008950E9452210895CF930E9457210E9491
:1042C0003D120E945821C0E08C2F0E947811892B4A
:1042D00031F4CF5FC430C1F780E0CF91089581E021
:1042E000FCCF85B7806885BF85B7806885BF089596
:1042F0001F921FB61F9211248F939F93AF93BF936A
:104300008091F602811113C08091190590911A05D0
:10431000A0911B05B0911C054196A11DB11D809374
:10432000190590931A05A0931B05B0931C05BF9126
:10433000AF919F918F911F901FBE1F9018958091F4
:104340002105843031F10E9485041092F60288E143
:1043500090E020E40FB6F894A895809360000FBE1B
:104360002093600083B7817F846083BF83B78160BF
:1043700083BF7894889583B78E7F83BF0FB6F894F8
:10438000A895809160008861809360001092600021
:104390000FBE08950E9405080E948C04089582E0D3
:1043A00084BD93E095BD9AEF97BD80936E0008950C
:1043B0002FB7F8948091190590911A05A0911B05CB
:1043C000B0911C052FBF0895A4E0B0E0EAEEF1E241
:1043D0000C94AF2B8FB7F8942091190530911A05E2
:1043E00040911B0550911C0529833A834B835C83C4
:1043F0008FBF69817A818B819C812496E2E00C9445
:10440000CB2B9C014FB7F8948091190590911A0518
:10441000A0911B05B0911C054FBF821B930B089503
:10442000A4E0B0E0E6E1F2E20C94AD2B462F572F6A
:10443000BC012FB7F8948091190590911A05A091AD
:104440001B05B0911C052FBF8C019D01041B150B92
:10445000260B370BC901B8012496E4E00C94C92B54
:1044600078941F921FB61F9211248F939F93AF933E
:10447000BF938091190590911A05A0911B05B091E9
:104480001C050196A11DB11D8093190590931A0575
:10449000A0931B05B0931C05BF91AF919F918F9185
:1044A0001F901FBE1F90189581E08093E00080E26E
:1044B0008093D8001092C9008FE19EE40197F1F734
:1044C00000C0000087E090EBDC0180932A05909308
:1044D0002B05A0932C05B0932D0588E19CE00FB629
:1044E000F894A895809360000FBE90936000FFCF72
:1044F00088E19CE00FB6F894A895809360000FBE09
:1045000090936000FFCFFF920F931F93CF93DF93A1
:10451000182FEB011092BC0084EA8093BC000E942B
:10452000D821082FF92E8091BC0087FF28C08091E8
:10453000B900887F883029F08091B900887F803168
:10454000A1F51093BB0084E88093BC000E94D821A1
:10455000182F092F8091BC0087FF1FC02091B90040
:10456000287F80E090E0283199F081E090E02034CD
:1045700011F480E090E091958195910909C0802F18
:104580009F2D0E940122C817D90768F68EEF9FEF72
:10459000CDB7DEB7E5E00C94C82B812F902F0E9499
:1045A0000122C817D907B0F6F1CF8FEF9FEFF0CFF8
:1045B0001092B9008CE08093B80008950F931F9378
:1045C000CF93DF93EB018093BB0084E88093BC0022
:1045D0000E94D821182F092F8091BC0087FF11C09D
:1045E0002091B900287F81E090E0283211F480E02A
:1045F00090E0919581959109DF91CF911F910F9155
:104600000895CF3FDC0741F3812F902F0E940122B4
:10461000C817D90708F78EEF9FEFEECFA0E0B0E004
:10462000E4E1F3E20C94A42B782E5B016A0189018A
:104630000E94D8214C010431110560F10F3F100791
:1046400069F1C80164E170E00E94162BF62EE72E96
:104650006F2D7E2D872D0E948322EC0197FF09C0CC
:104660000F3F1007A9F3C4010E9401220817190780
:1046700078F77501CA0CDB1CEC14FD0411F0D7FFB0
:1046800010C084E98093BC00CE01CDB7DEB7EDE069
:104690000C94C02BFF24F394E12CDACF85E0F82EA4
:1046A000FBCFB801F70181917F010E94DE22EC016E
:1046B000E3CFA0E0B0E0EFE5F3E20C94A42B782E7A
:1046C0005B016A0189010E94D8214C010431110566
:1046D00060F10F3F100769F1C80164E170E00E94CA
:1046E000162BF62EE72E6F2D7E2D872D0E9483220E
:1046F000EC0197FF09C00F3F1007A9F3C4010E9406
:1047000001220817190778F77501CA0CDB1CEC1495
:10471000FD0411F0D7FF10C084E98093BC00CE01E6
:10472000CDB7DEB7EDE00C94C02BFF24F394E12C61
:10473000DACF85E0F82EFBCFF7018491B8010E9413
:10474000DE22EC01FFEFEF1AFF0AE1CFA0E0B0E0BC
:10475000ECEAF3E20C94A32B682E962E5A01690121
:1047600078010E94D821782E892E0431110530F16C
:104770000F3F100731F1C80164E170E00E94162B71
:10478000162F072F612F702F862D0E948322EC0198
:1047900097FF19C0FFEFEF16FF06A1F3872D982DA5
:1047A0000E940122E816F90668F784E98093BC00AC
:1047B000CE01CDB7DEB7EEE00C94BF2B11E000E0E8
:1047C000E1CF15E0FCCFB701892D0E94DE22EC017C
:1047D0008501CA0CDB1C0C151D0539F3D7FDE5CF8F
:1047E000B701F80181918F010E94DE22EC01F3CF25
:1047F0008091FF020895282FCB01BA013091210545
:104800003430E1F42F702093E9002FEF3091E8006D
:1048100035FD07C035ED3A95F1F700002150211123
:10482000F5CF2091E80025FF09C040E050E00E944C
:1048300045268091E8008E778093E8000895BC01BA
:1048400043E050E084E00E94FB230895BC0146E071
:1048500050E084E00E94FB230895BC0140E250E058
:1048600084E00E94FB230895CF93DF93D82FC92FB4
:1048700048E050E0682F792F81E00E94FB2388E018
:10488000ED2FFC2FA7EFB2E001900D928A95E1F792
:10489000DF91CF910895792F603231F440E250E0FA
:1048A000682F82E00E94FB230895809120058111EA
:1048B00009C00E941C280E9479288091E20084602F
:1048C0008093E20008951092200508950E944921E6
:1048D000089560911D0581E0611101C080E00E9492
:1048E000402108959091210581E0943009F080E005
:1048F00060911D050E944621089542E061EC81E02F
:104900000E94982742E261EC84E00E94982742E2EC
:1049100061EC82E00E94982742E260EC83E00E9412
:1049200098279091210581E0943009F080E0609112
:104930001D050E943A21089580912305893089F14F
:1049400048F4823009F4A1C0833009F45BC081309F
:1049500041F008958A3009F488C08B3009F46DC0A5
:10496000089580912205813A09F04BC08091E800BA
:10497000877F8093E8008091260590912705892BF9
:1049800061F060E080E090E070E00E94E3268091BA
:10499000E8008B778093E800089568E087EF92E065
:1049A000F3CF80912205813261F5809126059091A7
:1049B00027058D7F892B29F58091E800877F8093DB
:1049C000E8008091E80082FF18C09091F300809188
:1049D000F200029731F48091F100813011F08630BD
:1049E00021F48091F1008093FF028091E8008B77A1
:1049F0008093E8000E94CC2704C08091210581119A
:104A0000E0CF089580912205813AD9F7809126055B
:104A100090912705892BA9F78091E800877F8093E3
:104A2000E8008091E80080FFFCCF80912101809315
:104A3000F1008091E8008E77DBCF809122058132F2
:104A400001F78091260590912705892BD1F6809159
:104A5000E800877F8093E8000E94CC27809124059E
:104A6000809321010E9405080895809122058132DA
:104A700041F68091E800877F8093E8000E94CC2770
:104A80008091250580930003089580912205813A45
:104A900009F0B7CF8091E800877F8093E80080918C
:104AA000E80080FFFCCF80910003C1CF84B7877FEF
:104AB00084BF0FB6F894A8958091600088618093B8
:104AC0006000109260000FBE80E890E00FB6F8948E
:104AD00080936100909361000FBE0E944F21089562
:104AE0000E941C280E947928E2EEF0E08081846018
:104AF000808378940E94FC2A089587E191E00E94C7
:104B00008B1F089580912105853031F48091210516
:104B1000853019F00E94CA2108950E949F2180913A
:104B20001F05882399F30E945C21882379F30E9452
:104B30002F260E940508EACFA0E2B0E0E2EAF5E203
:104B40000C94AF2B80912105843081F483E0809315
:104B5000E9008091E80082FF09C08091E80085FDAE
:104B600009C08091E8008B778093E800A096E2E08E
:104B70000C94CB2B40E050E060E270E0CE01019657
:104B80000E9494268091E8008B778093E80060E291
:104B9000CE0101960E94181DE9CF9A014091280587
:104BA000509129050E94D5250895AC01CB01D9016A
:104BB000252F33272330310521F168F421303105C9
:104BC00009F443C02230310509F444C080E090E08C
:104BD00020E030E024C02132310551F1223231058C
:104BE000A9F78330910590F7FC01EE0FFF1FE955FF
:104BF000FE4F208131818C559E4FFC01808190E0D9
:104C00000EC0CA019927413069F08230910569F0E0
:104C1000EAEDF4E0892BD1F6849190E09F012D9389
:104C20003C930895E2EDF4E0F7CFE2ECF4E0F4CF4A
:104C30008330910558F6FC01EE0FFF1FE355FE4F40
:104C40002081318189E090E0EACF82E190E029E3A0
:104C500035E0E5CF8BE590E02EED34E0E0CF80E16C
:104C600089BD82E189BD09B400FEFDCF8091D800E5
:104C70008F7D8093D8008091E00082608093E00077
:104C80008091E00081FDFCCF0895AF92BF92CF925A
:104C9000DF92FF920F931F93CF93DF936C01EB0191
:104CA0008A010E94EB27F82E811123C001151105FE
:104CB00039F0F80180819181C81BD90BC80ED91E2B
:104CC000A12CB12C2097A9F08091E80085FD22C08D
:104CD0008091E8008E778093E80001151105A1F01E
:104CE000F801808191818A0D9B1D9183808385E0ED
:104CF000F82E8F2DDF91CF911F910F91FF90DF90B4
:104D0000CF90BF90AF9008950E94EB278823E1F2E7
:104D1000F82EEFCFF60181916F018093F10021977A
:104D2000FFEFAF1ABF0ACECFAF92BF92CF92DF9202
:104D3000FF920F931F93CF93DF936C01EB018A01D6
:104D40000E94EB27F82E811123C00115110539F0BF
:104D5000F80180819181C81BD90BC80ED91EA12CE6
:104D6000B12C2097A9F08091E80085FD22C08091A8
:104D7000E8008B778093E80001151105A1F0F80198
:104D8000808191818A0D9B1D9183808385E0F82E1F
:104D90008F2DDF91CF911F910F91FF90DF90CF90DA
:104DA000BF90AF9008950E94EB278823E1F2F82E80
:104DB000EFCF8091F100F60181936F012197FFEF12
:104DC000AF1ABF0ACECFFC019B01809128059091BC
:104DD00029058617970718F0672B61F0C90140E095
:104DE000009771F441110CC08091E80082FF35C03A
:104DF00080E008958091E8008E778093E800EECF00
:104E0000209121052223A9F12530A9F12091E80064
:104E100023FD2DC02091E80022FDE6CF2091E8007F
:104E200020FFDECF3091F3002091F200009719F0BF
:104E30002830310558F041E02830310509F040E0D4
:104E40002091E8002E772093E800CACF419140934B
:104E5000F10001972F5F3F4FE9CF80912105882313
:104E600041F0853041F08091E80083FFBDCF81E0C3
:104E7000089582E0089583E00895FC019B018091EC
:104E80002805909129058617970718F0672B61F080
:104E9000C90140E0009771F441110CC08091E80015
:104EA00082FF36C080E008958091E8008E7780937D
:104EB000E800EECF209121052223B1F12530B1F198
:104EC0002091E80023FD2EC02091E80022FDE6CFCE
:104ED0002091E80020FFDECF3091F3002091F20016
:104EE000009719F02830310558F041E0283031059D
:104EF00009F040E02091E8002E772093E800CACF27
:104F000044914093F100319601972F5F3F4FE8CFD6
:104F100080912105882341F0853041F08091E8009F
:104F200083FFBCCF81E0089582E0089583E0089577
:104F3000982F973028F08F708093E90081E00895D2
:104F40009093E900242F762F50E0981731F070915C
:104F5000EC002091ED005091F00021FD02C09F5F18
:104F6000E8CF3091EB003E7F3093EB003091ED00C5
:104F70003D7F3093ED003091EB0031603093EB00DA
:104F80007093EC002093ED005093F0002091EE0020
:104F900027FDE5CF80E008958091220587FF13C0AB
:104FA0008091E80082FF06C08091E8008B778093B3
:104FB000E80004C0809121058111F2CF089580910D
:104FC00021058823D9F38091E80080FFF8CF8091F4
:104FD000E8008E77ECCF2091E4003091E50095E673
:104FE000A9018091EC008170882331F08091E80064
:104FF00080FF06C080E008952091E80022FD1BC0DC
:1050000080912105882391F0853091F08091EB000B
:1050100085FD10C02091E4003091E5004217530750
:1050200001F391509111DCCF84E0089582E008955E
:1050300083E0089581E008950E948B280E949328C0
:10504000E0EEF0E0808181608083E8EDF0E0808137
:105050008F77808319BCA7EDB0E08C918E7F8C9305
:1050600080818F7E80831092200508950F931F9377
:10507000CF93DF930E948B280E949328C8EDD0E045
:1050800088818F77888388818068888388818F7DF5
:10509000888319BC1092210510921D0510921F05DE
:1050A00010921E0500EE10E0F80180818B7F808356
:1050B00088818160888342E060E080E00E949827D8
:1050C000E1EEF0E080818E7F8083E2EEF0E080818F
:1050D00081608083808188608083F80180818E7FF9
:1050E0008083888180618883DF91CF911F910F91A8
:1050F0000895E8EDF0E080818F7E8083E7EDF0E0B9
:1051000080818160808384E082BF81E0809320057C
:105110000E9436280895E8EDF0E080818E7F80833C
:105120001092E20008951092DA001092E1000895C2
:105130001F920F920FB60F9211242F933F934F930C
:105140005F936F937F938F939F93AF93BF93EF93EF
:10515000FF938091E10082FF0BC08091E20082FF0B
:1051600007C08091E1008B7F8093E1000E94FB2AC1
:105170008091DA0080FF19C08091D80080FF15C0AF
:105180008091DA008E7F8093DA008091D90080FFD1
:1051900094C080E189BD82E189BD09B400FEFDCFE4
:1051A00081E0809321050E9455248091E10080FFD9
:1051B00019C08091E20080FF15C08091E2008E7FCF
:1051C0008093E2008091E20080618093E200809110
:1051D000D80080628093D80019BC85E080932105B7
:1051E0000E9469248091E10084FF29C08091E2003F
:1051F00084FF25C080E189BD82E189BD09B400FE3C
:10520000FDCF8091D8008F7D8093D8008091E10000
:105210008F7E8093E1008091E2008F7E8093E20098
:105220008091E20081608093E20080911D058823D7
:1052300009F449C084E0809321050E947224809182
:10524000E10083FF29C08091E20083FF25C08091A7
:10525000E100877F8093E10082E080932105109236
:105260001D058091E1008E7F8093E1008091E20036
:105270008E7F8093E2008091E20080618093E20063
:1052800042E060E080E00E9498278091F000886012
:105290008093F0000E946624FF91EF91BF91AF913F
:1052A0009F918F917F916F915F914F913F912F913E
:1052B0000F900FBE0F901F90189519BC10922105EA
:1052C0000E94632472CF8091E30087FF02C083E0D5
:1052D000B2CF81E0B0CF1F920F920FB60F92112480
:1052E000FF920F931F932F933F934F935F936F936F
:1052F0007F938F939F93AF93BF93CF93DF93EF935E
:10530000FF9309EE10E0F8018081C091EC00C79591
:10531000CC27C7958F70FC2EF82A1082C0EFD0E002
:105320008881877F888378940E94B429F80110824D
:10533000888188608883CF2DCF70C083FF91EF91E3
:10534000DF91CF91BF91AF919F918F917F916F919D
:105350005F914F913F912F911F910F91FF900F906F
:105360000FBE0F901F901895AAE2B0E0EAEBF9E2A9
:105370000C94AE2B82E295E0FC0101962091F100A5
:10538000208325E08A329207B9F70E949C248091FD
:10539000E80083FF38C080912205909123059A3060
:1053A00090F5E92FF0E0E755F34D0C947F2B803812
:1053B00089F0823841F5809126058F70873018F585
:1053C0008093E9008091EB0085FB882780F910929B
:1053D000E90006C080911E0590911F059111826021
:1053E0009091E800977F9093E8008093F1001092ED
:1053F000F1008091E8008E7723C0811116C0809162
:105400002405813011F18091E80083FF0AC080916A
:10541000E800877F8093E8008091EB0080628093B2
:10542000EB00AA96E3E00C94CA2B823061F78091DE
:105430002405882389F01092E9008091E800877F95
:105440008093E8000E94CC27DECF81E0933009F002
:1054500080E080931F05EFCF809126058F702FEF9E
:10546000280F263080F68093E9002091EB0020FF82
:10547000E2CF933031F48091EB0080628093EB00B7
:10548000DACF9091EB0090619093EB0021E030E057
:10549000A90102C0440F551F8A95E2F74093EA0024
:1054A0001092EA008091EB008860E8CF8111ABCFC9
:1054B000109124051F778091E3008078812B8093E1
:1054C000E3008091E800877F8093E8000E94CC276A
:1054D0008091E80080FFFCCF8091E300806880939A
:1054E000E30083E0111101C082E0809321058BCF9E
:1054F0008058823008F087CF80912405909125054F
:105500008C3D53E0950799F583E08A838AE289838D
:105510004FB7F894DE01139620E03EE051E2E32F0E
:10552000F0E050935700849120FF03C082958F7064
:105530003F5F8F708A30C8F0895C90E08D939D93B7
:105540002F5F243161F74FBF8091E800877F809300
:10555000E8006AE270E0CE0101960E94E3268091A5
:10556000E8008B778093E8004ECF805DE6CF6091B6
:10557000260570912705AE014F5F5F4F0E94CD2534
:10558000BC01892B09F43FCF8091E800877F80938D
:10559000E80089819A810E943D27E1CF803809F097
:1055A00032CF8091E800877F8093E80080911D05CD
:1055B0008093F1001ECF811126CF90912405923067
:1055C00008F021CF8091E800877F8093E8009093D6
:1055D0001D050E94CC2780911D05882331F084E0B1
:1055E000809321050E947D240ECF8091E30087FDEA
:1055F000F6CF81E0F5CF0895CF93809121058823E0
:1056000099F08091E900C091EC00C795CC27C7952F
:105610008F70C82B1092E9008091E80083FD0E94F2
:10562000B429CF70C093E900CF910895AA1BBB1B8A
:1056300051E107C0AA1FBB1FA617B70710F0A61B92
:10564000B70B881F991F5A95A9F780959095BC01B3
:10565000CD01089597FB072E16F4009407D077FD2F
:1056600009D00E94162B07FC05D03EF49095819539
:105670009F4F0895709561957F4F0895A1E21A2E6E
:10568000AA1BBB1BFD010DC0AA1FBB1FEE1FFF1FE6
:10569000A217B307E407F50720F0A21BB30BE40B36
:1056A000F50B661F771F881F991F1A9469F760957D
:1056B0007095809590959B01AC01BD01CF01089537
:1056C000052E97FB1EF400940E94772B57FD07D000
:1056D0000E943E2B07FC03D04EF40C94772B509580
:1056E0004095309521953F4F4F4F5F4F08959095CE
:1056F0008095709561957F4F8F4F9F4F0895EE0F66
:10570000FF1F0590F491E02D0994692796276927DA
:1057100078278727782708950E94D62BA59F900D7C
:10572000B49F900DA49F800D911D11240895B7FF83
:105730000C948C2B0E948C2B821B930B08952F9220
:105740003F924F925F926F927F928F929F92AF9211
:10575000BF92CF92DF92EF92FF920F931F93CF935E
:10576000DF93CDB7DEB7CA1BDB0B0FB6F894DEBFF5
:105770000FBECDBF09942A88398848885F846E841B
:105780007D848C849B84AA84B984C884DF80EE8065
:10579000FD800C811B81AA81B981CE0FD11D0FB66E
:1057A000F894DEBF0FBECDBFED010895A29FB001FA
:1057B000B39FC001A39F700D811D1124911DB29F45
:1057C000700D811D1124911D0895FB01DC0104C0A1
:1057D0008D910190801921F441505040C8F7881BE9
:1057E000990B0895FB01DC0102C001900D9241501C
:1057F0005040D8F70895F999FECF92BD81BDF89A2F
:10580000992780B50895A8E1B0E042E050E00C94FB
:105810003F2CDC01A40FB51F4150504048F0CB0194
:10582000840F951F2E910E941A2C41505040D0F7A2
:105830000895262FF999FECF92BD81BDF89A019760
:1058400000B4021639F01FBA20BD0FB6F894FA9AC8
:10585000F99A0FBE08950396272F0E941A2C0E94D2
:10586000192C252F0E941A2C242F0C941A2C0196E7
:10587000272F0E941A2C0C94192CDC01CB01FC015F
:10588000F999FECF06C0F2BDE1BDF89A319600B499
:105890000D9241505040B8F70895F894FFCFFB05A2
:1058A000FB0542064206A706C4062A062A06C906C2
:1058B0003607470747077417E8177C1746174A1734
:1058C00080174E17841790175A17E1175E17941711
:1058D00062179817C01766179C17C7176C17A2177F
:1058E000AA175217881756178C177017A617B617CE
:1058F000D017DF1740177817EF17AE18B118B71881
:10590000CC18CC18CC18CC18CC18CC18CC18CC1877
:10591000BA18BF18C318C918DA18E018E418281CF8
:105920002E1C181C221C341C3A1C401C3B1D531DF1
:10593000A41DC51DD91DED1DF01DF01DF01D5E1D22
:105940005E1DF61DFC1D081E171E2A1E2D1E301E74
:10595000431ED729FD29032AFD29032A562A782A1E
:06596000032ACE2ADB2A17
:10596600390259020021007F220003280850011E37
:105976000A140103020101F82334242D2426241FCE
:105986002401E200E900EA00B500B600B700CD0048
:105996008301CC008A019201940121022302240290
:1059A6002502260227022A02B300B4006F00700007
:1059B6009F01CB019F02A002E200E900EA00B500C8
:1059C600B600B700CD008301CC008A019201940194
:1059D6002102230224022502260227022A02B300FC
:1059E600B4006F0070009F01CB019F02A002946675
:1059F60097C63435F4F5F6F7313332360008101809
:105A0600181008004422B623064B056D05F004095C
:045A16000529050059
:00000001FF
